:020000040800F2
:1000000000280020A51700082D1700083517000844
:100010003D170008451700084D17000800000000B4
:10002000000000000000000000000000551700085C
:1000300061170008000000006D170008791700081C
:10004000ED170008ED170008ED170008ED17000880
:10005000ED170008ED170008ED170008ED17000870
:10006000ED170008ED170008ED170008ED17000860
:10007000ED170008ED170008ED170008ED17000850
:10008000ED170008ED170008ED170008ED17000840
:10009000ED170008ED170008ED170008ED17000830
:1000A000ED170008ED170008ED170008ED17000820
:1000B00085170008ED17000800000000ED17000884
:1000C000ED1700080000000000000000ED17000818
:1000D00000000000ED170008ED1700080000000008
:1000E000ED170008ED170008ED17000800000000EC
:1000F0000000000000000000000000000000000000
:0C01000000000000000000005FF808F1A3
:10010C0010B5054C237833B9044B13B10448AFF345
:10011C0000800123237010BDBC00002000000000F3
:10012C00242E000808B5034B1BB103490348AFF359
:10013C00008008BD00000000C0000020242E000834
:10014C0080B582B000AF78607B68092B00F28081AB
:10015C0001A252F823F000BF8D010008D501000860
:10016C001D02000865020008AD020008F502000837
:10017C003D03000885030008CD03000815040008A2
:10018C0000220221B54801F030FE00220421B348C0
:10019C0001F02BFE00220821B04801F026FE0022BF
:1001AC001021AE4801F021FE00222021AB4801F0C5
:1001BC001CFE00224021A94801F017FE01228021DB
:1001CC00A64801F012FE44E101220221A34801F0ED
:1001DC000CFE00220421A14801F007FE0022082198
:1001EC009E4801F002FE012210219C4801F0FDFD09
:1001FC0001222021994801F0F8FD01224021974865
:10020C0001F0F3FD01228021944801F0EEFD20E184
:10021C0000220221914801F0E8FD002204218F48C0
:10022C0001F0E3FD012208218C4801F0DEFD0022E3
:10023C0010218A4801F0D9FD00222021874801F0C5
:10024C00D4FD01224021854801F0CFFD0022802100
:10025C00824801F0CAFDFCE0002202217F4801F037
:10026C00C4FD002204217D4801F0BFFD00220821BD
:10027C007A4801F0BAFD00221021784801F0B5FD52
:10028C0001222021754801F0B0FD01224021734864
:10029C0001F0ABFD00228021704801F0A6FDD8E0F2
:1002AC00012202216D4801F0A0FD002204216B48BF
:1002BC0001F09BFD00220821684801F096FD012207
:1002CC001021664801F091FD01222021634801F0C4
:1002DC008CFD00224021614801F087FD0022802125
:1002EC005E4801F082FDB4E0002202215B4801F07F
:1002FC007CFD01220421594801F077FD00220821E0
:10030C00564801F072FD00221021544801F06DFD99
:10031C0001222021514801F068FD002240214F4864
:10032C0001F063FD002280214C4801F05EFD90E05D
:10033C0000220221494801F058FD012204214748BE
:10034C0001F053FD00220821444801F04EFD00222B
:10035C001021424801F049FD002220213F4801F0C4
:10036C0044FD002240213D4801F03FFD0022802148
:10037C003A4801F03AFD6CE000220221374801F0C6
:10038C0034FD00220421354801F02FFD0022082104
:10039C00324801F02AFD01221021304801F025FDE0
:1003AC00012220212D4801F020FD012240212B4863
:1003BC0001F01BFD01228021284801F016FD48E0C8
:1003CC0000220221254801F010FD002204212348BF
:1003DC0001F00BFD00220821204801F006FD00224F
:1003EC0010211E4801F001FD002220211B4801F0C4
:1003FC00FCFC00224021194801F0F7FC002280216E
:10040C00164801F0F2FC24E000220221134801F00E
:10041C00ECFC00220421114801F0E7FC0022082129
:10042C000E4801F0E2FC002210210C4801F0DDFC2A
:10043C0001222021094801F0D8FC00224021074864
:10044C0001F0D3FC00228021044801F0CEFC00E036
:10045C0000BF00BF0837BD4680BD00BF000801408B
:10046C0080B483B000AF786039603B68042B0FDC3C
:10047C000A4A3B68002142F823107B68084A82FB39
:10048C0003129210DB17D21A06493B6841F823205D
:10049C0000BF0C37BD4680BC704700BFD8000020A1
:1004AC0067666666EC00002080B483B000AF002362
:1004BC007B601CE0124A7B6852F82330002B13DD62
:1004CC000F4A7B6852F823305A1E0D497B6841F85D
:1004DC0023200B4A7B6852F82330002B04DC094A9A
:1004EC007B68012142F823107B6801337B607B68B9
:1004FC00042BDFDD00BF00BF0C37BD4680BC70474E
:10050C00EC000020D800002080B483B000AF7860ED
:10051C00094A7B6852F82330012B06D1064A7B68C6
:10052C00002142F82310012300E0002318460C3769
:10053C00BD4680BC704700BF0001002080B582B072
:10054C0000AF00237B607BE0414A7B6852F823209C
:10055C0040497B6841F823203F4A7B6852F82320AE
:10056C003B497B6841F823203C4A7B6852F8332096
:10057C003A497B68DB000B449B881946104601F016
:10058C001DFC03461946344A7B6842F82310304A56
:10059C007B6852F8232030497B6851F823309A420B
:1005AC004BD12B4A7B6852F823202A497B6851F89F
:1005BC0023309A4241D1274A7B6852F8232028499C
:1005CC007B6851F823309A4218D0224A7B6852F843
:1005DC00232023497B6841F823201E4A7B6852F86C
:1005EC002330002B29D11F4A7B68322142F823107B
:1005FC001D4A7B68012142F823101EE0194A7B68D2
:10060C0052F823305A1E17497B6841F82320154AAB
:10061C007B6852F82330002B0FD1124A7B683221B1
:10062C0042F823100B4A7B6852F82330002B04D17C
:10063C000B4A7B68012142F823107B6801337B60F5
:10064C007B68022B80DD00BF00BF0837BD4680BD34
:10065C000C00002018000020000000203C000020AE
:10066C0024000020300000200001002080B582B062
:10067C0000AF7860A34A7B6852F82330013B032B10
:10068C0000F27B8201A252F823F000BFA9060008F9
:10069C00E7070008350900085F0A00089A497A68DC
:1006AC0013465B001344DB000B44186896497A68C8
:1006BC0013465B001344DB000B4404331B880122FC
:1006CC00194601F092FB90497A6813465B0013447B
:1006DC00DB000B44083318688B497A6813465B00BF
:1006EC001344DB000B440C331B880122194601F028
:1006FC007CFB85497A6813465B001344DB000B4492
:10070C001033186880497A6813465B001344DB0089
:10071C000B4414331B880122194601F066FB7B68DD
:10072C00002B11D1774A7B68022142F82310774BBA
:10073C001A6877497B6841F82320744B1B687968E9
:10074C001846FFF78DFE10E06E4A7B68032142F8D5
:10075C002310704B1A686E497B6841F823206D4B4F
:10076C001B6879681846FFF77BFE0020FFF7CCFE6C
:10077C000346002B26D0634B1B68674A1360614B02
:10078C005B68654A53605F4B0C221A605D4B0C2210
:10079C005A605D4B1B685C4A91880022184601F038
:1007AC0024FB594B9B69584A918B0022184601F047
:1007BC001CFB564B1B68594A13600421FA20FFF7A7
:1007CC004FFEDCE10120FFF79FFE0346002B40F0BB
:1007DC00D6810220FFF798FED1E14B497A68134687
:1007EC005B001344DB000B44186847497A681346D6
:1007FC005B001344DB000B4404331B8800221946B6
:10080C0001F0F3FA40497A6813465B001344DB00AD
:10081C000B44083318683C497A6813465B00134450
:10082C00DB000B440C331B880122194601F0DDFA66
:10083C0035497A6813465B001344DB000B441033D4
:10084C00186831497A6813465B001344DB000B448B
:10085C0014331B880122194601F0C7FA304B1B6870
:10086C00184600F0A9F92F4A7B6852F82330002B68
:10087C0010D0244A7B68032142F82310254B1A68B8
:10088C0023497B6841F82320224B1B687968184662
:10089C00FFF7E6FD0020FFF737FE0346002B26D0BE
:1008AC00184B1B681C4A1360164B5B681A4A536042
:1008BC00144B0C221A60134B0C225A60124B1B68FF
:1008CC00114A91880022184601F08FFA0E4B9B6951
:1008DC000D4A918B0022184601F087FA0B4B1B68CE
:1008EC000E4A13600421FA20FFF7BAFD49E10120FA
:1008FC00FFF70AFE0346002B40F043810220FFF76E
:10090C0003FE3EE10C01002060000020540000209A
:10091C00200100205C000020140100202801002090
:10092C001C010020D80000209A497A6813465B000D
:10093C001344DB000B44186896497A6813465B0035
:10094C001344DB000B4404331B880122194601F0CD
:10095C004CFA90497A6813465B001344DB000B4455
:10096C00083318688B497A6813465B001344DB0024
:10097C000B440C331B880022194601F036FA8549CA
:10098C007A6813465B001344DB000B441033186881
:10099C0080497A6813465B001344DB000B44143324
:1009AC001B880122194601F020FA7B4B1B68184664
:1009BC0000F002F9794A7B6852F82330002B10D0F2
:1009CC00774A7B68042142F82310764B1A687649E3
:1009DC007B6841F82320734B1B6879681846FFF736
:1009EC003FFD0020FFF790FD0346002B26D06C4BFB
:1009FC001B686E4A13606A4B5B686C4A5360684BA9
:100A0C000C221A60664B0C225A60624B1B68614ABE
:100A1C0091880022184601F0E8F95E4B9B695D4A0B
:100A2C00918B0022184601F0E0F9614B1B68614A7A
:100A3C0013600421FA20FFF713FDA4E00120FFF757
:100A4C0063FD0346002B40F09E800220FFF75CFD07
:100A5C0099E050497A6813465B001344DB000B4461
:100A6C0018684C497A6813465B001344DB000B444E
:100A7C0004331B880122194601F0B7F945497A68FD
:100A8C0013465B001344DB000B44083318684149E0
:100A9C007A6813465B001344DB000B440C331B8851
:100AAC000122194601F0A1F93A497A6813465B0014
:100ABC001344DB000B441033186836497A6813462C
:100ACC005B001344DB000B4414331B8800221946D3
:100ADC0001F08BF9304B1B68184600F06DF82F4A6B
:100AEC007B6852F82330002B10D02D4A7B680221F2
:100AFC0042F823102E4B1A682B497B6841F82320AF
:100B0C002B4B1B6879681846FFF7AAFC0020FFF7EF
:100B1C00FBFC0346002B26D0214B1B68234A136099
:100B2C001F4B5B68214A53601D4B0C221A601C4BF7
:100B3C000C225A60174B1B68164A918800221846E3
:100B4C0001F053F9134B9B69124A918B0022184602
:100B5C0001F04BF9164B1B68164A13600421FA205E
:100B6C00FFF77EFC11E00120FFF7CEFC0346002BC3
:100B7C000BD10220FFF7C8FC07E000BF06E000BF66
:100B8C0004E000BF02E000BF00E000BF00BF083778
:100B9C00BD4680BD600000201C010020D800002054
:100BAC000C0100205800002020010020140100201E
:100BBC00540000202801002080B582B000AF78607E
:100BCC00774B9B68002B00F0E6800221FA20FFF7A0
:100BDC0047FC744B1B68022B03DC724B1B68013304
:100BEC0000E000236F4A13607B68032B00F2D28075
:100BFC0001A252F823F000BF150C00086D0C000880
:100C0C00DB0C0008330D0008674B1B68664A9188A3
:100C1C000022184601F0E9F8634B9B68624A9189FF
:100C2C000122184601F0E1F85F4B1B695E4A918A7C
:100C3C000122184601F0D9F85B4B9B695A4A918BFB
:100C4C000122184601F0D1F8584B1B68584A82FB18
:100C5C0003121213DB17D31A1846FFF771FA9AE036
:100C6C00514B1B68504A91880122184601F0BDF87F
:100C7C004D4B9B684C4A91890022184601F0B5F8FF
:100C8C00494B1B69484A918A0122184601F0ADF87C
:100C9C00454B9B69444A918B0122184601F0A5F8FB
:100CAC00424B1B68434A82FB03129211DB17D21A88
:100CBC00414B83FB02139910D317C91A0B469B00A7
:100CCC000B445B00D11A0846FFF73AFA63E0364B47
:100CDC001B68354A91880122184601F086F8324B80
:100CEC009B68314A91890122184601F07EF82E4BFF
:100CFC001B692D4A918A0022184601F076F82A4B7E
:100D0C009B69294A918B0122184601F06EF8274BFA
:100D1C005B68274A82FB03121213DB17D31A18469F
:100D2C00FFF70EFA37E0204B1B681F4A918801220F
:100D3C00184601F05AF81C4B9B681B4A91890122FA
:100D4C00184601F052F8184B1B69174A918A012278
:100D5C00184601F04AF8144B9B69134A918B0022F8
:100D6C00184601F042F8114B5B68124A82FB0312E1
:100D7C009211DB17D21A104B83FB02139910D31765
:100D8C00C91A0B469B000B445B00D11A0846FFF7AF
:100D9C00D7F900E000BF00BF0837BD4680BD00BFDB
:100DAC00D80000201C010020900000202001002011
:100DBC00AD8BDB68D34D62106766666680B500AF9D
:100DCC000B4BDB68002B10D003214FF47A70FFF72C
:100DDC0047FB084B1B68A3F57A73064A1360054B57
:100DEC005B68A3F57A73034A536000BF80BD00BFF4
:100DFC00D80000202001002080B582B000AFA44BA9
:100E0C001B680E2B00F0F2800E2B00F308820C2BCB
:100E1C0002D00D2B70D002E29E4B9B689D4A9189AB
:100E2C000122184600F0E1FF9A4B1B6A994A918CFB
:100E3C000122184600F0D9FF964B1B69954A918AFE
:100E4C000122184600F0D1FF924B9B6A914A918D7A
:100E5C000122184600F0C9FF8F4B1B68022118466F
:100E6C0000F0FAF98D4B1B69002B13D00421FA20EA
:100E7C00FFF7F6FA874B1B68864A9288114618468C
:100E8C0000F0CBFF834B9B69824A928B114618462C
:100E9C0000F0C3FF0020FFF737FB0346002B07D001
:100EAC007B4B0D221A607E4B1B687E4A1360B8E1A7
:100EBC000120FFF729FB0346002B0ED0794B1B6852
:100ECC00794A934204DC774B1B6803F57A7301E093
:100EDC004FF47A73734A1360A3E10220FFF714FBFB
:100EEC000346002B00F09D816E4B1B686F4A13600C
:100EFC006F4B01221A6094E1664B1B68654A91881E
:100F0C000122184600F071FF624B9B69614A918B7C
:100F1C000122184600F069FF5E4B1B695D4A918AFD
:100F2C000122184600F061FF5A4B9B6A594A918D79
:100F3C000122184600F059FF574B1B680321184635
:100F4C0000F08AF9554B1B69002B13D00421FA20B1
:100F5C00FFF786FA4F4B9B684E4A9289114618460A
:100F6C0000F05BFF4B4B1B6A4A4A928C11461846A9
:100F7C0000F053FF0020FFF7C7FA0346002B07D001
:100F8C00434B0E221A604B4B1B68464A13604AE1D6
:100F9C000120FFF7B9FA0346002B11D0434B1B6815
:100FAC00A3F57A723F4B1B689A4204DD3D4B1B68DC
:100FBC0003F57A7301E04FF47A733A4A136032E125
:100FCC000220FFF7A1FA0346002B00F02C81354BD1
:100FDC001B68334A1360354B1A68314B1B68D31AA4
:100FEC00344A1360324B00221A601CE1294B9B6877
:100FFC00284A91890122184600F0F7FE254B1B6AFE
:10100C00244A918C0122184600F0EFFE214B1B68FC
:10101C00204A91880122184600F0E7FE1D4B9B697F
:10102C001C4A918B0122184600F0DFFE1A4B1B68FC
:10103C000421184600F010F9184B1B69002B13D033
:10104C000421FA20FFF70CFA124B1B69114A928A01
:10105C001146184600F0E1FE0E4B9B6A0D4A928D2C
:10106C001146184600F0D9FE0020FFF74DFA034652
:10107C00002B00F0A7800E4B1B68002B1CD0044BE0
:10108C000D221A60064B1B68064A1360CDE000BFA8
:10109C000C010020600000201C010020D800002062
:1010AC005C00002028010020B782010054000020C1
:1010BC002C010020580000205E4B1B685E4A136018
:1010CC005C4B5B685C4A53605C4B00221A600023EB
:1010DC007B6000233B60574B1B68022B09D0554BA0
:1010EC001B68032B02D1564B1B6804E0554B1B6845
:1010FC0001E0554B1B687B604E4B5B68022B09D0A3
:10110C004C4B5B68032B02D14D4B1B6804E04D4BE1
:10111C001B6801E04C4B1B683B60464B1B68022B69
:10112C000AD1444B5B68032B06D1474B1B687B6091
:10113C00434B1B683B6031E03E4B1B68032B0AD1D1
:10114C003C4B5B68022B06D13D4B1B687B603E4BD6
:10115C001B683B6022E0374B1B68022B0DD1354BD3
:10116C005B68042B09D1384B1A68354B1B68D31AB2
:10117C007B60344B1B683B6010E02E4B1B68042BD0
:10118C000CD12C4B5B68022B08D12E4B1B687B605F
:10119C002D4B1A682A4B1B68D31A3B602B4A7B6871
:1011AC0013602A4A3B68536000217868FFF758F9AE
:1011BC0001213868FFF754F903214FF47A70FFF7D7
:1011CC004FF932E00120FFF79FF90346002B11D0B5
:1011DC001D4B1B68A3F57A721D4B1B689A4204DDEC
:1011EC001B4B1B6803F57A7301E04FF47A73184AB2
:1011FC0013601AE00220FFF787F90346002B14D086
:10120C00134B1B680F4A13600F4B1A680D4B1B686E
:10121C00D31A0B4A13600F4B00221A6005E000BF73
:10122C0004E000BF02E000BF00E000BF00BF0837D1
:10123C00BD4680BD140100200C0100201C010020C3
:10124C005C000020580000205400002020010020E9
:10125C00280100202C01002080B582B000AF7860FE
:10126C003960694B9B68002B00F0CA800221FA2080
:10127C00FFF7F6F8654B1B68022B03DC634B1B680E
:10128C00013300E00023614A13607B68032B00F2FA
:10129C00B68001A252F823F0B51200080D13000815
:1012AC007B130008C3130008594B1B68584A9188DC
:1012BC000022184600F099FD554B9B68544A9189C1
:1012CC000122184600F091FD514B1B69504A918A3E
:1012DC000122184600F089FD4D4B9B694C4A918BBD
:1012EC000122184600F081FD4A4B1B684A4A82FBDA
:1012FC0003121213DB17D31A1846FEF721FF7FE0F7
:10130C00434B1B68424A91880122184600F06DFD40
:10131C003F4B9B683E4A91890022184600F065FDC0
:10132C003B4B1B693A4A918A0122184600F05DFD3D
:10133C00374B9B69364A918B0122184600F055FDBC
:10134C00344B1B68354A82FB03129211DB17D21AFD
:10135C00334B83FB02139910D317C91A0B469B000E
:10136C000B445B00D11A0846FEF7EAFE48E0284B16
:10137C001B68274A91880122184600F036FD244B41
:10138C009B68234A91890122184600F02EFD204BC0
:10139C001B691F4A918A0022184600F026FD1C4B3F
:1013AC009B691B4A918B0122184600F01EFD002000
:1013BC00FEF7C6FE24E0164B1B68154A91880122E5
:1013CC00184600F012FD124B9B68114A91890122BC
:1013DC00184600F00AFD0E4B1B690D4A918A01223A
:1013EC00184600F002FD0A4B9B69094A918B0022BA
:1013FC00184600F0FAFC3868FEF7A2FE00E000BFC9
:10140C0000BF0837BD4680BDD80000201C0100205D
:10141C009000002028010020AD8BDB68D34D6210BA
:10142C006766666680B500AF00F0DCF900F026F860
:10143C0000F0ACF800F05EF80E4801F035F90E4BF8
:10144C0001221A600C4B01225A600221FA20FFF78C
:10145C0007F803214FF47A70FFF702F80020FFF72A
:10146C0005F90120FFF702F9FFF7C6FCFFF7A6FC10
:10147C0000BFF3E7300100200C01002080B590B0D4
:10148C0000AF07F1180328220021184601F098FC40
:10149C003B1D00221A605A609A60DA601A610223BE
:1014AC00BB610123BB621023FB6200237B6307F14A
:1014BC001803184600F0CAFC0346002B01D000F0BC
:1014CC00D3F80F237B600023BB600023FB60002359
:1014DC003B6100237B613B1D0021184600F038FF67
:1014EC000346002B01D000F0BFF800BF4037BD46CB
:1014FC0080BD000080B586B000AF07F10803002264
:10150C001A605A609A60DA603B4600221A605A6090
:10151C001D4B4FF080421A601B4B41F63F725A60D4
:10152C00194B00229A60184B0922DA60164B0022E4
:10153C001A61154B00229A61134801F065F80346B5
:10154C00002B01D000F090F84FF48053BB6007F1F2
:10155C00080319460C4801F0E3F90346002B01D0AF
:10156C0000F082F800233B6000237B603B46194669
:10157C00054801F0BBFB0346002B01D000F074F8CA
:10158C0000BF1837BD4680BD3001002080B586B045
:10159C0000AF07F1080300221A605A609A60DA6003
:1015AC00284B9B69274A43F004039361254B9B69A5
:1015BC0003F004037B607B68224B9B69214A43F058
:1015CC00080393611F4B9B6903F008033B603B6866
:1015DC00002247F2FE711C4800F007FC002240F686
:1015EC0078011A4800F001FC47F2FE73BB6001233E
:1015FC00FB6000233B6102237B6107F10803194662
:10160C00114800F05FFA0723BB600023FB60012345
:10161C003B6107F1080319460C4800F053FA40F6F9
:10162C007803BB600123FB6000233B6102237B61D9
:10163C0007F108031946054800F044FA00BF1837B3
:10164C00BD4680BD0010024000080140000C014066
:10165C0080B582B000AF7860FEF726FFFEF76EFF14
:10166C0000BF0837BD4680BD80B400AF72B600BF66
:10167C0000BFFDE780B485B000AF154B9B69144AE1
:10168C0043F001039361124B9B6903F00103BB60B0
:10169C00BB680F4BDB690E4A43F08053D3610C4B94
:1016AC00DB6903F080537B607B680A4B5B68FB60F3
:1016BC00FB6823F0E063FB60FB6843F08063FB6036
:1016CC00044AFB68536000BF1437BD4680BC7047AA
:1016DC00001002400000014080B584B000AF78607B
:1016EC007B681B68B3F1804F13D10C4BDB690B4A41
:1016FC0043F00103D361094BDB6903F00103FB6089
:10170C00FB68002200211C2000F0A5F91C2000F031
:10171C00BEF900BF1037BD4680BD00BF00100240AF
:10172C0080B400AF00BFFDE780B400AF00BFFDE7A1
:10173C0080B400AF00BFFDE780B400AF00BFFDE791
:10174C0080B400AF00BFFDE780B400AF00BFBD4662
:10175C0080BC704780B400AF00BFBD4680BC7047F2
:10176C0080B400AF00BFBD4680BC704780B500AFF1
:10177C0000F07EF800BF80BD80B500AF024800F0DD
:10178C00DFFF00BF80BD00BF3001002080B400AF80
:10179C0000BFBD4680BC7047FFF7F8FF0B480C49F3
:1017AC000C4A002302E0D458C4500433C4188C42B1
:1017BC00F9D3094A094C002301E013600432A24218
:1017CC00FBD301F005FBFFF72DFE70470000002056
:1017DC00BC000020682E0008BC0000207C0100200A
:1017EC00FEE7000080B500AF084B1B68074A43F0CA
:1017FC0010031360032000F023F90F2000F008F809
:10180C00FFF738FF0023184680BD00BF00200240C0
:10181C0080B582B000AF7860124B1A68124B1B78FF
:10182C0019464FF47A73B3FBF1F3B2FBF3F318469A
:10183C0000F03BF90346002B01D001230EE07B683E
:10184C000F2B0AD8002279684FF0FF3000F003F913
:10185C00064A7B681360002300E001231846083712
:10186C00BD4680BDB0000020B8000020B4000020B0
:10187C0080B400AF054B1B781A46054B1B6813440C
:10188C00034A136000BFBD4680BC7047B8000020FF
:10189C007801002080B400AF024B1B681846BD468F
:1018AC0080BC70477801002080B485B000AF7860B0
:1018BC007B6803F00703FB600C4BDB68BB60BA680A
:1018CC004FF6FF031340BB60FB681A02BB6813435F
:1018DC0043F0BF6343F40033BB60044ABB68D3607E
:1018EC0000BF1437BD4680BC704700BF00ED00E060
:1018FC0080B400AF044BDB681B0A03F007031846E7
:10190C00BD4680BC704700BF00ED00E080B483B0E2
:10191C0000AF0346FB7197F90730002B0BDBFB790B
:10192C0003F01F02064997F907305B09012000FA02
:10193C0002F241F8232000BF0C37BD4680BC704733
:10194C0000E100E080B483B000AF03463960FB7166
:10195C0097F90730002B0ADB3B68DAB20C4997F990
:10196C0007301201D2B20B4483F800230AE03B6823
:10197C00DAB20849FB7903F00F03043B1201D2B22F
:10198C000B441A7600BF0C37BD4680BC704700BFB5
:10199C0000E100E000ED00E080B489B000AFF86039
:1019AC00B9607A60FB6803F00703FB61FB69C3F164
:1019BC000703042B28BF0423BB61FB690433062BEC
:1019CC0002D9FB69033B00E000237B614FF0FF323F
:1019DC00BB6902FA03F3DA43BB681A407B699A408D
:1019EC004FF0FF317B6901FA03F3D9437B680B405D
:1019FC00134318462437BD4680BC704780B582B06F
:101A0C0000AF78607B68013BB3F1807F01D3012389
:101A1C000FE00A4A7B68013B53600F214FF0FF3007
:101A2C00FFF790FF054B00229A60044B07221A60C7
:101A3C00002318460837BD4680BD00BF10E000E00B
:101A4C0080B582B000AF78607868FFF72DFF00BFDB
:101A5C000837BD4680BD80B586B000AF0346B9607F
:101A6C007A60FB7300237B61FFF742FF78617A6831
:101A7C00B9687869FFF790FF024697F90F30114665
:101A8C001846FFF75FFF00BF1837BD4680BD80B515
:101A9C0082B000AF0346FB7197F907301846FFF789
:101AAC0035FF00BF0837BD4680BD80B582B000AFA2
:101ABC0078607868FFF7A2FF034618460837BD46E2
:101ACC0080BD000080B48BB000AF7860396000231B
:101ADC007B6200233B6261E101227B6A02FA03F321
:101AEC00FB613B681B68FA691340BB61BA69FB690F
:101AFC009A4240F050813B685B68974A93425ED0B3
:101B0C00954A934275D8954A934258D0934A93423A
:101B1C006FD8934A934252D0914A934269D8914AD2
:101B2C0093424CD08F4A934263D88F4A934246D00B
:101B3C008D4A93425DD8122B2AD8122B59D801A268
:101B4C0052F823F0CB1B0008A51B0008B71B00089C
:101B5C00F91B0008FF1B0008FF1B0008FF1B0008F7
:101B6C00FF1B0008FF1B0008FF1B0008FF1B0008E1
:101B7C00FF1B0008FF1B0008FF1B0008FF1B0008D1
:101B8C00FF1B0008FF1B0008AD1B0008C11B000851
:101B9C00764A934213D02CE03B68DB683B6229E029
:101BAC003B68DB6804333B6224E03B68DB6808334A
:101BBC003B621FE03B68DB680C333B621AE03B681E
:101BCC009B68002B02D104233B6213E03B689B68AB
:101BDC00012B05D108233B627B68FA691A6109E085
:101BEC0008233B627B68FA695A6103E000233B627D
:101BFC0000E000BFBB69FF2B01D87B6801E07B686C
:101C0C0004337B61BB69FF2B02D87B6A9B0002E02B
:101C1C007B6A083B9B003B617B691A680F213B691F
:101C2C0001FA03F3DB431A40396A3B6901FA03F307
:101C3C001A437B691A603B685B6803F08053002B86
:101C4C0000F0A9804A4B9B69494A43F00103936118
:101C5C00474B9B6903F00103BB60BB68454A7B6A39
:101C6C009B08023352F82330FB607B6A03F00303BA
:101C7C009B000F2202FA03F3DB43FA681340FB606C
:101C8C007B683D4A93420DD07B683C4A934207D017
:101C9C007B683B4A934201D1022304E0032302E018
:101CAC00012300E000237A6A02F0030292009340C1
:101CBC00FA681343FB602F497B6A9B080233FA686E
:101CCC0041F823203B685B6803F48013002B06D09B
:101CDC002C4B9A682B49BB6913438B6006E0294B4C
:101CEC009A68BB69DB43274913408B603B685B6890
:101CFC0003F40013002B06D0224BDA682149BB6990
:101D0C001343CB6006E01F4BDA68BB69DB431D490C
:101D1C001340CB603B685B6803F40033002B06D0A8
:101D2C00184B5A681749BB6913434B6006E0154BB7
:101D3C005A68BB69DB43134913404B603B685B68D3
:101D4C0003F48033002B1FD00E4B1A680D49BB696E
:101D5C0013430B601FE000BF000032100000311075
:101D6C0000002210000021100000121000001110C1
:101D7C00001002400000014000080140000C01402E
:101D8C0000100140000401400B4B1A68BB69DB4397
:101D9C00094913400B607B6A01337B623B681A680C
:101DAC007B6A22FA03F3002B7FF496AE00BF00BFD0
:101DBC002C37BD4680BC70470004014080B485B010
:101DCC0000AF78600B467B807B689A687B881340F9
:101DDC00002B02D00123FB7301E00023FB73FB7B80
:101DEC0018461437BD4680BC704780B483B000AF32
:101DFC0078600B467B8013467B707B78002B03D07E
:101E0C007A887B681A6103E07B881A047B681A6104
:101E1C0000BF0C37BD4680BC704780B485B000AFA6
:101E2C0078600B467B807B68DB68FB607A88FB689C
:101E3C0013401A04FB68D9437B880B401A437B6818
:101E4C001A6100BF1437BD4680BC704780B586B0A0
:101E5C0000AF78607B68002B01D1012372E27B68B4
:101E6C001B6803F00103002B00F08780924B5B682A
:101E7C0003F00C03042B0CD08F4B5B6803F00C03AA
:101E8C00082B12D18C4B5B6803F48033B3F5803F85
:101E9C000BD1894B1B6803F40033002B6CD07B688F
:101EAC005B68002B68D101234CE27B685B68B3F55F
:101EBC00803F06D1804B1B687F4A43F4803313600C
:101ECC002EE07B685B68002B0CD17B4B1B687A4A3D
:101EDC0023F480331360784B1B68774A23F48023F8
:101EEC0013601DE07B685B68B3F5A02F0CD1724BBF
:101EFC001B68714A43F4802313606F4B1B686E4A56
:101F0C0043F4803313600BE06B4B1B686A4A23F479
:101F1C0080331360684B1B68674A23F4802313607B
:101F2C007B685B68002B13D0FFF7B4FC386108E0CA
:101F3C00FFF7B0FC02463B69D31A642B01D903238B
:101F4C0000E25D4B1B6803F40033002BF0D014E06F
:101F5C00FFF7A0FC386108E0FFF79CFC02463B69E8
:101F6C00D31A642B01D90323ECE1534B1B6803F404
:101F7C000033002BF0D100E000BF7B681B6803F03E
:101F8C000203002B63D04C4B5B6803F00C03002B5B
:101F9C000BD0494B5B6803F00C03082B1CD1464B50
:101FAC005B6803F48033002B16D1434B1B6803F0A2
:101FBC000203002B05D07B681B69012B01D0012388
:101FCC00C0E13D4B1B6823F0F8027B685B69DB00CA
:101FDC00394913430B603AE07B681B69002B20D016
:101FEC00364B01221A60FFF755FC386108E0FFF709
:101FFC0051FC02463B69D31A022B01D90323A1E100
:10200C002D4B1B6803F00203002BF0D02A4B1B68EE
:10201C0023F0F8027B685B69DB00274913430B60F4
:10202C0015E0264B00221A60FFF734FC386108E0FB
:10203C00FFF730FC02463B69D31A022B01D903236C
:10204C0080E11D4B1B6803F00203002BF0D17B6871
:10205C001B6803F00803002B3AD07B689B69002BAC
:10206C0019D0174B01221A60FFF714FC386108E0F5
:10207C00FFF710FC02463B69D31A022B01D903234C
:10208C0060E10D4B5B6A03F00203002BF0D00120E2
:10209C0000F09CFA1CE00A4B00221A60FFF7FAFBD6
:1020AC0038610FE0FFF7F6FB02463B69D31A022BAF
:1020BC0008D9032346E100BF001002400000424251
:1020CC0080044242924B5B6A03F00203002BE9D17D
:1020DC007B681B6803F00403002B00F0A680002330
:1020EC00FB758B4BDB6903F08053002B0DD1884BB8
:1020FC00DB69874A43F08053D361854BDB6903F07E
:10210C008053BB60BB680123FB75824B1B6803F4D7
:10211C008073002B18D17F4B1B687E4A43F480736D
:10212C001360FFF7B7FB386108E0FFF7B3FB02461B
:10213C003B69D31A642B01D9032303E1754B1B684C
:10214C0003F48073002BF0D07B68DB68012B06D185
:10215C006F4B1B6A6E4A43F0010313622DE07B68E0
:10216C00DB68002B0CD16A4B1B6A694A23F0010314
:10217C001362674B1B6A664A23F0040313621CE06C
:10218C007B68DB68052B0CD1614B1B6A604A43F002
:10219C00040313625E4B1B6A5D4A43F00103136236
:1021AC000BE05B4B1B6A5A4A23F001031362584B3A
:1021BC001B6A574A23F0040313627B68DB68002B0D
:1021CC0015D0FFF767FB38610AE0FFF763FB0246A7
:1021DC003B69D31A41F28832934201D90323B1E00F
:1021EC004B4B1B6A03F00203002BEED014E0FFF7FD
:1021FC0051FB38610AE0FFF74DFB02463B69D31AED
:10220C0041F28832934201D903239BE0404B1B6A75
:10221C0003F00203002BEED1FB7D012B05D13C4BCF
:10222C00DB693B4A23F08053D3617B68DB69002B6D
:10223C0000F08780364B5B6803F00C03082B61D0F1
:10224C007B68DB69022B46D1334B00221A60FFF707
:10225C0021FB386108E0FFF71DFB02463B69D31AEE
:10226C00022B01D903236DE0294B1B6803F000738B
:10227C00002BF0D17B681B6AB3F5803F08D1244B4F
:10228C005B6823F400327B689B68214913434B60E5
:10229C001F4B5B6823F474127B68196A7B685B6A5A
:1022AC000B431B4913434B601B4B01221A60FFF776
:1022BC00F1FA386108E0FFF7EDFA02463B69D31AF0
:1022CC00022B01D903233DE0114B1B6803F0007373
:1022DC00002BF0D035E0104B00221A60FFF7DAFA31
:1022EC00386108E0FFF7D6FA02463B69D31A022B95
:1022FC0001D9032326E0064B1B6803F00073002B67
:10230C00F0D11EE07B68DB69012B07D1012319E0BA
:10231C000010024000700040600042420B4B5B68B2
:10232C00FB60FB6803F480327B681B6A9A4206D11F
:10233C00FB6803F470127B685B6A9A4201D001233C
:10234C0000E0002318461837BD4680BD001002403F
:10235C0080B584B000AF786039607B68002B01D108
:10236C000123D0E06A4B1B6803F007033A689A42DA
:10237C0010D9674B1B6823F0070265493B68134370
:10238C000B60634B1B6803F007033A689A4201D059
:10239C000123B8E07B681B6803F00203002B20D0FC
:1023AC007B681B6803F00403002B05D0594B5B685A
:1023BC00584A43F4E06353607B681B6803F00803DE
:1023CC00002B05D0534B5B68524A43F46053536067
:1023DC00504B5B6823F0F0027B689B684D491343BC
:1023EC004B607B681B6803F00103002B40D07B68BB
:1023FC005B68012B07D1474B1B6803F40033002BA0
:10240C0015D101237FE07B685B68022B07D1414B20
:10241C001B6803F00073002B09D1012373E03D4BC3
:10242C001B6803F00203002B01D101236BE0394B35
:10243C005B6823F003027B685B68364913434B608F
:10244C00FFF728FAF8600AE0FFF724FA0246FB6867
:10245C00D31A41F28832934201D9032353E02D4B16
:10246C005B6803F00C027B685B689B009A42EBD1C3
:10247C00274B1B6803F007033A689A4210D2244B8F
:10248C001B6823F0070222493B6813430B60204B67
:10249C001B6803F007033A689A4201D0012332E02B
:1024AC007B681B6803F00403002B08D0194B5B6896
:1024BC0023F4E0627B68DB68164913434B607B684E
:1024CC001B6803F00803002B09D0124B5B6823F444
:1024DC0060527B681B69DB000E4913434B6000F0B4
:1024EC0021F802460B4B5B681B0903F00F030A49EA
:1024FC00CB5C22FA03F3094A1360094B1B6818469C
:10250C00FFF786F9002318461037BD4680BD00BF83
:10251C0000200240001002403C2E0008B0000020B9
:10252C00B400002080B487B000AF0023FB60002310
:10253C00BB6000237B6100237B6000233B611E4B4F
:10254C005B68FB60FB6803F00C03042B02D0082BC8
:10255C0003D027E0194B3B6127E0FB689B0C03F091
:10256C000F03174AD35C7B60FB6803F48033002BAA
:10257C0010D0114B5B685B0C03F00103114AD35C68
:10258C00BB607B680D4A03FB02F2BB68B2FBF3F342
:10259C007B6104E07B680C4A02FB03F37B617B6983
:1025AC003B6102E0054B3B6100BF3B6918461C37A1
:1025BC00BD4680BC704700BF0010024000127A007C
:1025CC004C2E00085C2E000800093D0080B485B03C
:1025DC0000AF78600A4B1B680A4AA2FB03235B0A14
:1025EC007A6802FB03F3FB6000BFFB685A1EFA60BB
:1025FC00002BF9D100BF00BF1437BD4680BC70471B
:10260C00B0000020D34D621080B582B000AF78606E
:10261C007B68002B01D1012341E07B6893F83D30AE
:10262C00DBB2002B06D17B68002283F83C20786853
:10263C00FFF752F87B68022283F83D207B681A680A
:10264C007B6804331946104600F056FA7B68012269
:10265C0083F846207B68012283F83E207B680122A8
:10266C0083F83F207B68012283F840207B6801229D
:10267C0083F841207B68012283F842207B68012289
:10268C0083F843207B68012283F844207B68012275
:10269C0083F845207B68012283F83D2000231846EF
:1026AC000837BD4680BD000080B485B000AF7860AF
:1026BC007B6893F83D30DBB2012B01D0012335E070
:1026CC007B68022283F83D207B681B68DA687B6894
:1026DC001B6842F00102DA607B681B68164A934261
:1026EC0009D07B681B68B3F1804F04D07B681B68F2
:1026FC00124A934211D17B681B689B6803F0070355
:10270C00FB60FB68062B10D07B681B681A687B6823
:10271C001B6842F001021A6007E07B681B681A68AC
:10272C007B681B6842F001021A60002318461437BC
:10273C00BD4680BC704700BF002C01400004004027
:10274C0080B584B000AF78607B681B68DB68FB6089
:10275C007B681B681B69BB60BB6803F00203002B22
:10276C0020D0FB6803F00203002B1BD07B681B6896
:10277C006FF002021A617B6801221A777B681B6872
:10278C009B6903F00303002B03D0786800F098F9E1
:10279C0005E0786800F08BF9786800F09AF97B68AE
:1027AC0000221A77BB6803F00403002B20D0FB68CF
:1027BC0003F00403002B1BD07B681B686FF0040232
:1027CC001A617B6802221A777B681B689B6903F489
:1027DC004073002B03D0786800F072F905E078683C
:1027EC0000F065F9786800F074F97B6800221A77BC
:1027FC00BB6803F00803002B20D0FB6803F0080330
:10280C00002B1BD07B681B686FF008021A617B6879
:10281C0004221A777B681B68DB6903F00303002B27
:10282C0003D0786800F04CF905E0786800F03FF9C7
:10283C00786800F04EF97B6800221A77BB6803F0C9
:10284C001003002B20D0FB6803F01003002B1BD0CF
:10285C007B681B686FF010021A617B6808221A777C
:10286C007B681B68DB6903F44073002B03D078682A
:10287C0000F026F905E0786800F019F9786800F0A6
:10288C0028F97B6800221A77BB6803F00103002B40
:10289C000CD0FB6803F00103002B07D07B681B688E
:1028AC006FF001021A617868FEF7D2FEBB6803F084
:1028BC008003002B0CD0FB6803F08003002B07D0A7
:1028CC007B681B686FF080021A61786800F06FFA01
:1028DC00BB6803F04003002B0CD0FB6803F04003F3
:1028EC00002B07D07B681B686FF040021A61786878
:1028FC0000F0F8F8BB6803F02003002B0CD0FB6849
:10290C0003F02003002B07D07B681B686FF02002BC
:10291C001A61786800F042FA00BF1037BD4680BDDE
:10292C0080B584B000AF786039600023FB737B689E
:10293C0093F83C30012B01D10223B4E07B680122D7
:10294C0083F83C207B68022283F83D207B681B685F
:10295C009B68BB60BB6823F07703BB60BB6823F448
:10296C007F43BB607B681B68BA689A603B681B68D6
:10297C00B3F5005F3ED0B3F5005F00F28780B3F58E
:10298C00805F00F08680B3F5805F7FD8702B1AD003
:10299C00702B7BD8602B50D0602B77D8502B3CD031
:1029AC00502B73D8402B58D0402B6FD8302B64D081
:1029BC00302B6BD8202B60D0202B67D8002B5CD011
:1029CC00102B5AD062E07B6818683B6899683B68AA
:1029DC005A683B68DB6800F06AF97B681B689B6887
:1029EC00BB60BB6843F07703BB607B681B68BA684D
:1029FC009A604FE07B6818683B6899683B685A6836
:102A0C003B68DB6800F053F97B681B689A687B684D
:102A1C001B6842F480429A603CE07B6818683B6813
:102A2C0059683B68DB681A4600F0CAF87B681B687B
:102A3C005021184600F021F92CE07B6818683B689F
:102A4C0059683B68DB681A4600F0E8F87B681B683D
:102A5C006021184600F011F91CE07B6818683B688F
:102A6C0059683B68DB681A4600F0AAF87B681B685B
:102A7C004021184600F001F90CE07B681A683B68AD
:102A8C001B681946104600F0F8F803E00123FB73AD
:102A9C0000E000BF7B68012283F83D207B680022A8
:102AAC0083F83C20FB7B18461037BD4680BD80B4B4
:102ABC0083B000AF786000BF0C37BD4680BC704758
:102ACC0080B483B000AF786000BF0C37BD4680BCCB
:102ADC00704780B483B000AF786000BF0C37BD4640
:102AEC0080BC704780B483B000AF786000BF0C37F7
:102AFC00BD4680BC7047000080B485B000AF7860E4
:102B0C0039607B681B68FB607B682B4A934207D05B
:102B1C007B68B3F1804F03D07B68284A934208D17D
:102B2C00FB6823F07003FB603B685B68FA68134337
:102B3C00FB607B68204A934207D07B68B3F1804FDF
:102B4C0003D07B681D4A934208D1FB6823F4407381
:102B5C00FB603B68DB68FA681343FB60FB6823F09F
:102B6C0080023B685B691343FB607B68FA681A6000
:102B7C003B689A687B68DA623B681A687B689A6281
:102B8C007B680D4A934203D13B681A697B681A63D0
:102B9C007B6801225A617B681B6903F00103002BDF
:102BAC0005D07B681B6923F001027B681A6100BFAA
:102BBC001437BD4680BC7047002C01400004004017
:102BCC0080B487B000AFF860B9607A60FB681B6AAC
:102BDC007B61FB681B6A23F00102FB681A62FB68CD
:102BEC009B693B613B6923F0F0033B617B681B01F4
:102BFC003A6913433B617B6923F00A037B617A6971
:102C0C00BB6813437B61FB683A699A61FB687A691C
:102C1C001A6200BF1C37BD4680BC704780B487B0B9
:102C2C0000AFF860B9607A60FB681B6A7B61FB6877
:102C3C001B6A23F01002FB681A62FB689B693B61FC
:102C4C003B6923F470433B617B681B033A69134374
:102C5C003B617B6923F0A0037B61BB681B017A6934
:102C6C0013437B61FB683A699A61FB687A691A6263
:102C7C0000BF1C37BD4680BC704780B485B000AF28
:102C8C00786039607B689B68FB60FB6823F070039D
:102C9C00FB603A68FB68134343F00703FB607B68F7
:102CAC00FA689A6000BF1437BD4680BC704780B488
:102CBC0087B000AFF860B9607A603B60FB689B68D6
:102CCC007B617B6923F47F437B613B681A027B68E1
:102CDC001A43BB6813437A6913437B61FB687A69B7
:102CEC009A6000BF1C37BD4680BC704780B485B06D
:102CFC0000AF786039607B6893F83C30012B01D1D0
:102D0C00022341E07B68012283F83C207B6802228D
:102D1C0083F83D207B681B685B68FB607B681B68E5
:102D2C009B68BB60FB6823F07003FB603B681B680F
:102D3C00FA681343FB607B681B68FA685A607B680F
:102D4C001B68144A934209D07B681B68B3F1804F0F
:102D5C0004D07B681B68104A93420CD1BB6823F0EB
:102D6C008003BB603B685B68BA681343BB607B68DD
:102D7C001B68BA689A607B68012283F83D207B68E7
:102D8C00002283F83C20002318461437BD4680BC33
:102D9C00704700BF002C01400004004080B483B099
:102DAC0000AF786000BF0C37BD4680BC704780B464
:102DBC0083B000AF786000BF0C37BD4680BC704755
:102DCC0003460244934200D1704703F8011BF9E714
:102DDC0070B500260C4D0D4C641BA410A64209D1F5
:102DEC0000F01AF800260A4D0A4C641BA410A642E7
:102DFC0005D170BD55F8043B98470136EEE755F800
:102E0C00043B98470136F2E7602E0008602E00085C
:102E1C00602E0008642E0008F8B500BFF8BC08BC92
:102E2C009E467047F8B500BFF8BC08BC9E4670477C
:102E3C00000000000000000001020304060708095E
:102E4C0002030405060708090A0B0C0D0E0F1010DF
:042E5C00010200006F
:042E60003101000834
:042E64000D01000854
:102E68000100000000000000000000000100000058
:102E78000000000000000000010000000000000049
:102E88000000000001000000000000000000000039
:102E9800320000000000000000000000000C0140AB
:102EA80001000000000C014002000000000C01407D
:102EB8000400000088130000D0070000B80B0000D1
:102EC8000008014000010000000801400004000063
:102ED8000008014000020000000801400010000046
:102EE80000080140004000000008014000200000E8
:102EF800000C014008000000000C01401000000018
:102F0800000C014020000000000C014040000000BF
:0C2F180000127A00100000000100000010
:04000005080017A533
:00000001FF
